:020000040800F2
:1000000038080020C5010008E5140008DD140008C8
:10001000E1140008CD020008651900080000000086
:10002000000000000000000000000000411900086E
:10003000E9020008000000003D1900084519000809
:10004000DF010008DF010008DF010008DF01000810
:10005000DF010008DF010008DF010008DF01000800
:10006000DF010008DF010008DF010008DF010008F0
:10007000DF010008DF010008DF010008DF010008E0
:10008000DF010008DF010008DF0100084D1900084A
:1000900059190008D1020008DD020008DF0100083C
:1000A000DF010008DF010008DF010008DF010008B0
:1000B000DF010008DF010008DF010008DF010008A0
:1000C000DF010008DF010008DF010008DF01000890
:1000D000DF010008DF010008DF010008DF01000880
:1000E000DF010008DF010008DF01000800F002F86E
:1000F00000F058F80AA090E8000C82448344AAF16A
:100100000107DA4501D100F04DF8AFF2090EBAE867
:100110000F0013F0010F18BFFB1A43F0010318473B
:10012000801D0000B01D00000A4410F8014B14F0BF
:100130000F0508BF10F8015B240908BF10F8014B38
:100140006D1E05D010F8013B6D1E01F8013BF9D181
:10015000641E03D0641E01F8015BFBD19142E4D31D
:1001600070470000103A24BF78C878C1FAD8520707
:1001700024BF30C830C144BF04680C607047000021
:100180000023002400250026103A28BF78C1FBD8A0
:10019000520728BF30C148BF0B6070471FB51FBD55
:1001A00010B510BD00F058F81146FFF7F7FF01F049
:1001B000DBFB00F076F803B4FFF7F2FF03BC00F0BE
:1001C0007DF800000948804709480047FEE7FEE740
:1001D000FEE7FEE7FEE7FEE7FEE7FEE7FEE7FEE7F7
:1001E00004480549054A064B7047000049190008B4
:1001F000ED000008380200203808002038040020F4
:10020000380400204FF0000200B51346944696468D
:10021000203922BFA0E80C50A0E80C50B1F1200119
:10022000BFF4F7AF090728BFA0E80C5048BF0CC0C7
:100230005DF804EB890028BF40F8042B08BF704725
:1002400048BF20F8022B11F0804F18BF00F8012B97
:100250007047704770477047754600F02BF8AE4600
:1002600005006946534620F00700854618B020B5C2
:10027000FFF7B6FFBDE820404FF000064FF0000743
:100280004FF000084FF0000BAC46ACE8C009ACE8FA
:10029000C009ACE8C009ACE8C00921F007018D46EF
:1002A000704710B50446AFF300802046BDE810400B
:1002B000FFF781BF0048704718000020014918204F
:1002C000ABBEFEE72600020070470000FEE700001C
:1002D00040F2CC00C2F2000000F088B940F2CC003D
:1002E000C2F2000000F082B97047000090F82020B0
:1002F000013A012A08D8006800F1140200201368AE
:1003000019431160704700BF00F1240201204FF42F
:1003100080211368194311607047000010B590F8F0
:1003200020E0D0F800C0AEF1010EBEF1010FDCF804
:1003300008E011D81EF0E05F18D0CEF3016EBEF1D8
:10034000030F1DD100F1240101204FF400020B68BE
:100350001A430A6010BD00BF00F1240101204FF4D0
:1003600080220B681A430A6010BD00BF00F124010F
:1003700001204FF400120B681A430A6010BD00BF41
:10038000012000FA0EF01860886828B14B68CC682C
:1003900044EAC303034303E00868CB6843EA4053DD
:1003A0000CEB0E10C0F880310B69C0F88431097D68
:1003B000012905D100F5C2710B6843F480730B600D
:1003C0005168C0F88C11126800F5C071C0F888211E
:1003D000002001220B681A430A6010BDB0B5026804
:1003E00090F82030013B012B28D8D2F800020123DD
:1003F00040F00100C2F80002D1F814E0CC690EF020
:100400001F0003FA00F0D2F81C326FEA000C83439D
:10041000012CC2F81C3217D06CBBD2F80C3203EAA4
:100420000C03C2F80C32CB688C8844EA034302EB1D
:10043000CE04C4F840320B4615E000BF416A41F4D7
:10044000802141620120B0BDD2F80C320343C2F8D2
:100450000C320B688C8844EA034302EBCE04C4F8E8
:10046000403201F10C038C681B8843EA044302EB21
:10047000CE04C4F84432D2F804328D6943EA000451
:10048000D1F810E0096A002D08BF03EA0C04C2F895
:100490000442D2F81432BEF1000F43EA000408BF50
:1004A00003EA0C040129C2F8144204D1D2F81C1248
:1004B0000843C2F81C02D2F8000220F00100C2F882
:1004C00000020020B0BD00007047000010B590F899
:1004D0002040013C012C71D8D0F800C0002977D011
:1004E000DCF81040A40777D00CEB011CDCF8B0411D
:1004F0000CF5D87E14F004049460DCF8B04119BF08
:10050000E4085460640D1460DEF80040002904F033
:100510000204D460DCF8B44104F00F041461DCF888
:10052000B441C4F307249461DCF8B4414FEA1444A5
:100530005461DCF8B8211A70026802EB0112D2F89B
:10054000B8214FEA12225A70026802EB0112D2F867
:10055000B8214FEA12429A70026802EB0112D2F8F7
:10056000B8214FEA1262DA70026802EB0112D2F887
:10057000BC211A71026802EB0112D2F8BC214FEAC9
:1005800012225A71026802EB0112D2F8BC214FEA22
:1005900012429A71026802EB0112D2F8BC214FEAB2
:1005A0001262DA71006814BF00F1100100F10C0151
:1005B000002020220B681A430A6010BD00F12401BC
:1005C00001204FF480220B681A430A6010BD00BF5F
:1005D000DCF80C40A40787D100F1240101204FF47E
:1005E00000120B681A430A6010BD00002DE9F04F9D
:1005F00081B0044600684669D0F804908768D0F856
:100600000CB0D0F810A0D0F81880F10704D1002564
:1006100030071DD424E000BFF90710D00121BA072C
:10062000816009D4780700F1AF80380700F1B68007
:10063000204600F0A9FA02E0204600F0A7FA0025C3
:10064000F80500F18780F80300F1B180300707D585
:100650001BF0100004D0206845F400751021C16023
:10066000700708D51BF0080005D020680821C1607C
:10067000204600F0D3F9B00706D52068C06880078F
:1006800002D0204600F0CCF9700607D51AF0100011
:1006900004D0206845F4806510210161B00608D5BA
:1006A0001AF0080005D0206808210161204600F0FA
:1006B00037FAF00606D520680069800702D0204688
:1006C00000F030FAB00308D519F0100005D020680A
:1006D00010214160204600F027FAF00308D519F0F8
:1006E000080005D0206808214160204600F058FA33
:1006F000300440F19B805FEA497040F1948006F439
:10070000807008EA102028435FEA8871014648BFDC
:1007100041F00201B20558BF01465FEA48700D463C
:1007200048BF45F00405700558BF0D46300540F13F
:100730007A8018F0700000F07680103800090528E3
:100740006CD8DFE800F003595D61656945F0080584
:1007500064E000BF20684FF48071BA0581600BD45B
:10076000780515D438051DD4204600F011FAF80399
:100770007FF56CAF1BE000BF204600F00BFAF803DA
:100780007FF564AF13E000BF4FF4006558E700BF8A
:1007900005F50055F8037FF559AF08E04FF4805593
:1007A0004EE700BF05F58045F8037FF54FAF2068A1
:1007B0004FF48031BA0381600AD4780310D438032F
:1007C00014D4204600F0E8F930073FF541AF47E781
:1007D000204600F0E3F930073FF53AAF40E700BFAD
:1007E00005F5004530073FF533AF39E705F58035AE
:1007F00030073FF52DAF33E745F010050EE000BFA1
:1008000045F020050AE000BF45F0400506E000BFC6
:1008100045F0800502E000BF45F4807520688169DD
:1008200021F07001816120680421416055B1606A46
:1008300040EA05012046616201B0BDE8F04FFFF7D4
:1008400043BE00BF01B0BDE8F08F0000B0B5C8B135
:10085000044690F8200010B9204600F071F8206896
:10086000016841F00101016000F0AAFA054600BFED
:1008700020684168C90707D100F0A2FA401B0B2885
:10088000F6D312E00120B0BD016821F00201016041
:1008900000F096FA054600BF2068416889070DD52B
:1008A00000F08EFA401B0B28F6D3606A052140F455
:1008B00000306062012084F82010B0BD217E026803
:1008C000012922F0800208BF80320260617E026846
:1008D000012922F0400208BF40320260A17E026876
:1008E000012922F0200208BF20320260E17E026866
:1008F000012922F0100218BF10320260217F026825
:10090000012922F0080208BF08320260617F0268F4
:10091000012922F0040208BF04320260D4E901C2B6
:10092000D4E9033561691A432A431143ACF101024A
:100930001143C16100200121606284F82010B0BD24
:10094000B0B586B0006846F20042C4F20002002151
:100950009042059102D006B0B0BD00BF41F2180030
:10096000C4F20200426840F6004442F00072426065
:100970004268C4F2010402F000720192019A026816
:1009800002AD42F008020260006800F00800019029
:1009900001984FF48070CDE9020104912046294668
:1009A00000F000F94FF40070029002200390032041
:1009B00005902046294600F0F5F80420C4F2010015
:1009C000016849F6FF72CFF6FF02114041F0E06185
:1009D00041F48041016013200021002200F072FAEE
:1009E000132000F05BFA14200021002200F06AFAC4
:1009F000142000F053FA15200021002200F062FAC2
:100A0000152000F04BFA16200021002200F05AFABF
:100A1000162000F043FA06B0B0BD00007047000099
:100A2000B0B582B040F27804C2F2000404F138029A
:100A300004F118030021FFF749FD207E637EA27EAA
:100A4000E17E94F81CC0532808BF542B42D056288E
:100A500008BF652B4ED0627940F2F4014FF0000CD4
:100A6000C2F200014FF4807E0123002009E000BFA4
:100A70000022A4F805E0E2712371072800F10100CB
:100A800026D2D5B2012D13D0002DF6D12218127E18
:100A9000E5790A2A4A55E57905F10105E57115D18F
:100AA0000628A4F8053084F807C0237110D8013057
:100AB0002218127EE5790A2A0D4485F83C20E57952
:100AC00005F10105E571D3D00122D6E70022D4E774
:100AD00002B0B0BD412ABAD15429B8D1BCF1550FEA
:100AE000B5D1657F532DB2D1A01C0121017002B098
:100AF000B0BD00BF722AAED13A29ACD1ACF1300002
:100B0000C1B2092988BFACF137008DF807009DF804
:100B100007006070E01C0121017002B0B0BD000050
:100B2000704700007047000070470000B0B50446F1
:100B300090F8200001281DD1022084F820002068B0
:100B4000016821F00101016000F03AF9054600BF9B
:100B500020684068C00713D000F032F9401B0B2812
:100B6000F6D3606A40F400306062052084F820000B
:100B70000120B0BD606A40F4002060620120B0BD79
:100B800000206062B0BD00007047000070470000A8
:100B90007047000070470000704700007047000079
:100BA000704700002DE9F04F82B00E68002E00F073
:100BB000038140F20C4C41F200424FF6FF7EC4F23A
:100BC000010CC4F20102042700240123C1F2100E1B
:100BD0004FF0000A4FF00009904208BF032700972A
:100BE00045E000BF012704F00C030F229A402BEAD6
:100BF000020207FA03F34FEA9A051A4346F8252042
:100C0000D1F804B040F20045C4F201055FEACB32EE
:100C10002A6854BF22EA080242EA08022A606A6887
:100C20005FEA8B3354BF22EA080242EA08026A6094
:100C30005FEACB23AA6854BF22EA080242EA08020C
:100C40005FEA8B23AA60DCF800204FF0010354BF59
:100C500022EA080242EA0802CCF800200E680AF1F3
:100C6000010A36FA0AF204F1040400F0A58003FA3E
:100C70000AF816EA080FF1D04E68764512DC122EFB
:100C800056D8DFE806F0350B4549555555555555AD
:100C9000555555555555554D510000BFD1F80C903F
:100CA00046E000BF4FF6FF72C1F2210296420FDC10
:100CB0000022C1F2110296421AD00022C1F21202A1
:100CC000964215D00022C1F22102964210D02FE0A8
:100CD0000022C1F2220296420AD00022C1F2310261
:100CE000964205D00022C1F23202964220D100BFC6
:100CF0008A684AB1012A14BFC0F81480C0F8108075
:100D00004FF0080914E000BF4FF0040910E000BFE5
:100D1000CA6802F108090BE04FF0000908E000BFC3
:100D2000CA6802F1040903E0CA6802F10C0900BFB5
:100D300022460646BAF1080F24BF203A0436376827
:100D40000F25954027EA050509FA02F22A43326089
:100D5000CA79D2067FF582AF41F21803C4F20203CA
:100D60001A6842F001021A601A6802F00102019248
:100D7000019A40F20042C4F20102A2F57E762AF006
:100D8000030256F802B040F60002C4F2010290429B
:100D900010D040F60042C4F2010290423FF422AF6C
:100DA00041F20002C4F20102009F904208BF0227F4
:100DB00019E700BF002716E702B0BDE8F08F00007A
:100DC00040F23420C2F200000068704740F2080090
:100DD00040F23421C2F20000C2F2000100780A6839
:100DE000104408607047000080B542F20000C4F271
:100DF0000200016841F010010160032000F08EF84C
:100E00000F2000F005F800F027F8002080BD00005A
:100E100070B540F20806C2F2000640F210013278C6
:100E2000C2F200014FF47A730968B3FBF2F2044690
:100E3000B1FBF2F1084600F03BFB0F2C4FF001052F
:100E400008D838B94FF0FF3021460022002500F0C5
:100E500039F87460284670BD82B041F21800C4F2BF
:100E600002000168022241F001010160016801F005
:100E7000010101910199416841F080514160406850
:100E800000F08050009000980420C4F20100016836
:100E900062F31A61016002B070470000002848BF89
:100EA0007047C1B200F01F00012202FA00F04EF2BA
:100EB0000012CEF2000242EAD10121F003010860E3
:100EC0007047000010B54EF60C5CCEF2000CDCF85A
:100ED0000030C3F3022E8EF00704042C28BF042434
:100EE000BEF103034FF0FF3E0EFA04F438BF0023B7
:100EF000A14399400EFA03F39A43114300F00F0205
:100F000000F160430901043A03F564436244002898
:100F100048BF02F10C03197010BD00004EF60C51D1
:100F2000CEF200010A684FF6FF031A4060F30A226E
:100F300042F0806040F0FD70086070472DE9F0439A
:100F400081B0002800F0858042F20008C4F2020857
:100F50000446D8F800000D4600F0070088420CD285
:100F6000D8F8000020F007002843C8F80000D8F89F
:100F7000000000F00700A8426BD1206841F204098C
:100F80008107C4F2020917D5410705D5D9F8001029
:100F900041F4E061C9F80010010705D5D9F8001047
:100FA00041F46051C9F80010D9F80010A26821F08E
:100FB000F0011143C9F80010C00741D1D8F8000072
:100FC00000F00700A8420CD9D8F8000020F0070074
:100FD0002843C8F80000D8F8000000F00700A84235
:100FE00037D12068410707D5D9F80010E26821F40D
:100FF000E0611143C9F80010000708D5D9F80000D6
:10100000216920F4605040EAC100C9F80000D9F815
:10101000002002F00C00082841F20020C0F27A0003
:1010200050D141F68E63C2F38341C0F60003595C90
:10103000D2033BD440F60010C0F23D00484341E0EB
:10104000606802280AD001282AD159F8041C8903B3
:1010500008D4012001B0BDE8F08300BF59F8041C9A
:101060008901F6D5D9F8001021F003010843C9F829
:101070000000FFF7A5FE064641F28837D9F80000C8
:10108000616800F00C00B0EB810F97D0FFF798FE7D
:10109000801BB842F2D9032001B0BDE8F08300BF45
:1010A00059F8041C8907D4D5DCE700BFD9F8002023
:1010B00041F67C63C2F34042C0F600039A5C4843A9
:1010C000B0FBF2F0D9F8001041F67E62C1F30311D3
:1010D000C0F60002515C40F2100220FA01F140F229
:1010E0000C00C2F200000068C2F200021160FFF7BB
:1010F0008FFE002001B0BDE8F08300002DE9F04133
:1011000082B0002868D00446007841F20006C0078B
:10111000C4F2020625D0706800F00C0004281BD031
:10112000706800F00C00082802D17068C00313D466
:101130006068002800F06881B0F5A02F00F07C8185
:10114000B0F5803F00F07C81306820F48030306062
:10115000306820F4802076E13068800301D5606833
:10116000D0B32078800718D5706810F00C0F07D026
:10117000706800F00C0008286ED17068C0036BD452
:101180003068800702D52069012825D1306861695F
:1011900020F0F80040EAC1003060207800071FD43A
:1011A0002078400732D4E56995B1706800F00C00F2
:1011B000082840F08F80012D0ED07068216A00F45D
:1011C00080328A4208D1616A00F47010884203D1EB
:1011D000002002B0BDE8F081012002B0BDE8F0813E
:1011E000A069002862D00020C4F242200121C0F88A
:1011F0008014FFF7E5FD0546706A800700F18C80DA
:10120000FFF7DEFD401B0228F6D92AE1F06910F055
:10121000805808D1F06940F08050F061F06900F02A
:1012200080500090009847F20007C4F20007386829
:10123000C00529D4386840F480703860FFF7C0FDDD
:10124000054600BF3868C0051ED4FFF7B9FD401B36
:101250006428F7D905E100BF2069002840F20000AA
:10126000C4F2422000F0828001210160FFF7A8FD56
:10127000054600BF306880073FF588AFFFF7A0FD47
:10128000401B0228F6D9ECE0E068002800F08080DE
:10129000052800F09780012800F09880306A20F03F
:1012A00001003062306A20F0040092E00020C4F2B5
:1012B00042200021C0F88014FFF782FD054600BFE0
:1012C000706A80077FF56CAFFFF77AFD401B02283C
:1012D000F6D9C6E00027C4F2422700203866FFF79F
:1012E0006FFD022D05460BD13068800140F1BE80B4
:1012F000FFF766FD401B02284FF00300F4D968E7B2
:10130000306880017FF564AFFFF75AFD401B02286B
:101310004FF00300F4D95CE740F21000C2F2000085
:10132000006844F6D351C1F26201A0FB0101480AF2
:10133000019000BF00BF0198411E002801913FF4B9
:101340002FAF00BF0198411E002801913FF428AF44
:1013500000BF0198411E002801913FF421AF00BF5A
:101360000198411E00280191E4D119E70021016094
:10137000FFF726FD054600BF306880077FF50DAFFB
:10138000FFF71EFD401B02284FF00300F4D920E7B1
:10139000306A20F001003062306A20F004003062D0
:1013A000FFF70EFD054641F2883700BF306A80071F
:1013B00020D5FFF705FD401BB8424FF00300F5D9DB
:1013C00007E700BF306A40F004003062306A40F046
:1013D00001003062FFF7F4FC054641F2883700BF98
:1013E000306A800706D4FFF7EBFC401BB842F7D900
:1013F00037E000BFB8F1000F7FF4D5AEF06920F000
:101400008050F061CFE600BF306820F4803030605B
:10141000306820F480203060FFF7D2FC054600BF22
:10142000306880037FF59DAEFFF7CAFC401B64283F
:101430004FF00300F4D9CCE6306840F480203060EF
:10144000306840F480303060FFF7BAFC054600BFDA
:10145000306880033FF585AEFFF7B2FC401B64287F
:10146000F6D9032002B0BDE8F08100BF206AB0F5D4
:10147000803F05D17168A26821F400311143716089
:101480007168626A21F4741111430843706001208D
:101490003866FFF795FC0446306880013FF598AE4A
:1014A000FFF78EFC001B02284FF00300F4D990E6F2
:1014B000411E0020B0EB116F1CBF012070474EF29F
:1014C0001002CEF2000251604EF62351CEF200011E
:1014D000F0230B700721906011607047FEE7000059
:1014E000FEE70000FEE700002DE9F04182B04278FF
:1014F00048F6002EA2F13001CBB2092B88BFA2F131
:1015000037018DF807109DF8071040F200088DF89C
:1015100005108278C0F6000EA2F13001CBB2092B83
:1015200088BFA2F137018DF807109DF80710C2F2AD
:1015300000088DF806109DF805109DF8062042EA77
:1015400001118DF80410C278A2F13001CBB2092B41
:1015500088BFA2F137018DF807109DF807100379B5
:10156000A3F13002D7B2092F88BFA3F137028DF85B
:1015700007209DF807304779A7F13002D6B2092E2F
:1015800088BFA7F137028DF807209DF8076087799B
:10159000A7F13002D5B2092D88BFA7F137028DF827
:1015A00007209DF80770057AA5F13002D4B2092C06
:1015B00088BFA5F137028DF807209DF80720042A7F
:1015C00004D100218DF804106FE100BF1B0240F22E
:1015D000780C43EA0131C2F2000C98F8072041EA86
:1015E00006119CF80030394341EA0265002BC8F827
:1015F000045040F0EE8048F6AB1340F2231142F263
:101600000C04AEF10102CCF6EF53C4F26751C4F200
:1016100002049542C8F800506CD94FF60005C0F698
:101620000005764602E000BF06F500666268120615
:1016300044BF44F8081C44F8083C626822F00102E8
:1016400062602268D20709D02268D2071CBF2268D4
:101650005FEAC27202D02268D207F2D1626842F019
:1016600001026260A660626842F00602626022685F
:10167000D20709D02268D2071CBF22685FEAC27273
:1016800002D02268D207F2D1AE4280F09F80626819
:1016900006F58067120644BF44F8081C44F8083C6D
:1016A000626822F0010262602268D2070AD02268D2
:1016B000D2071CBF22685FEAC27203D02268D20739
:1016C000F2D100BF626842F001026260A760626806
:1016D00042F0060262602268D207A5D02268D207D3
:1016E0001CBF22685FEAC2729ED02268D207F2D184
:1016F0009AE700BF42F20005C0F6000505F5CC46AA
:1017000002E000BF05F500656268120644BF44F8B8
:10171000081C44F8083C626822F0010262602268FA
:10172000D20709D02268D2071CBF22685FEAC272C2
:1017300002D02268D207F2D1626842F001026260F0
:10174000A560626842F0060262602268D20709D092
:101750002268D2071CBF22685FEAC27202D02268E8
:10176000D207F2D1B54231D2626845F480671206E1
:1017700044BF44F8081C44F8083C626822F00102A7
:1017800062602268D20709D02268D2071CBF226893
:101790005FEAC27202D02268D207F2D1626842F0D8
:1017A00001026260A760626842F00602626022681D
:1017B000D207A7D02268D2071CBF22685FEAC27294
:1017C000A0D02268D207F2D19CE700BF01218CF89B
:1017D000001000218DF803109DF803109DF80420DF
:1017E000B1EB520F61D240F26C1C0021C2F2000C2E
:1017F0009DF8032000EB8202567AA6F13007FAB278
:10180000092A86BFA6F137028DF807208DF80770E8
:101810009DF807609DF8032000EB8202957AA5F100
:101820003007FAB2092A86BFA5F137028DF80720E2
:101830008DF807709DF807509DF8032000EB820299
:10184000D47AA4F13007FAB2092A86BFA4F137028C
:101850008DF807208DF807709DF807709DF803201C
:1018600000EB8202127BA2F13004E3B2092B86BFA7
:10187000373A8DF807208DF807409DF8072045EA94
:10188000061343EA073343EA0222CBB22CF81320B3
:101890009DF80320013101328DF803209DF80320CB
:1018A0009DF80430B2EB530FA2D3017AA1F13000BE
:1018B000C2B2092A88BFA1F137008DF807009DF850
:1018C0000700012834D1D8F80000704530D242F228
:1018D0000C0040F27801C4F20200C2F20001497823
:1018E000426812060BD540F22312C4F2675240F848
:1018F000082C48F6AB12CCF6EF5240F8082C4268A0
:1019000022F002024260426842600268D20709D0B7
:101910000268D2071CBF02685FEAC27202D0026886
:10192000D207F2D14FF60000C0F60000A0F8001474
:101930009DF8040002B0BDE8F0810000704700008F
:1019400070470000FFF742BA7047000040F2CC0039
:10195000C2F20000FEF74ABE40F2CC00C2F2000024
:10196000FEF744BEFEE7000094B04EF6085C44F279
:101970000003CEF2000C4FF0006E0022C2F2000312
:10198000CCF800E072B600BF52F80E5002F10066CB
:101990009D50D6E90154D6E903019F187D60BC60D3
:1019A000F8603961706964327861B069B2F5FA6FD4
:1019B000B861F069F861306A3862706A7862B06A5A
:1019C000B862F06AF862306B3863706B7863B06B42
:1019D000B863F06BF863306C3864706C7864B06C2A
:1019E000B864F06CF864306D3865706D7865B06D12
:1019F000B865F06DF865306E3866C5D144F2000008
:101A0000C2F20000CCF8000062B6FFF7EDF90AACB4
:101A1000201D2421FEF7F6FB02200A9001200E90E3
:101A200010200F90002520461195FFF767FB28B185
:101A3000EFF3108072B600BFFEE700BF0F20CDE9C4
:101A4000050505A80021CDE907550995FFF776FAA8
:101A500020B1EFF3108072B6FEE700BF41F218002C
:101A6000C4F20200016840F2780B41F00401016009
:101A70000168C2F2000B01F004010A910A990168A1
:101A8000012641F008010160006846F2004100F0C3
:101A900008000A900A98C4F20001584640F8541F02
:101AA00000254FF440214FF48012C0E90165C0E9E0
:101AB0000351C0E905258583FEF7C8FE20B1EFF389
:101AC000108072B6FEE700BF0720CDE90E5044F249
:101AD000A0000BF1540448F60029CDE90A05CDE930
:101AE0000C050AA92046C0F600094FF6FF781296A9
:101AF000CDE910561395FEF771FC2046FFF716F856
:101B00000820CBF830004FF48270CBF8200020463C
:101B10000221CBE90A550494FEF7E8FBFFF750F9E0
:101B200040F20005064646F2A717C2F2000503E0A0
:101B30009BF8030001282BD0FFF742F9801BB84225
:101B40000CD8B9F800004045F2D0C5F8009072B644
:101B500028684068CBF808008047E9E79BF8030055
:101B6000B0B9B9F8000040450AD142F20000C0F611
:101B70000000018841450BD0286072B603E000BF29
:101B8000C5F8009072B628684068CBF80800804716
:101B90000BF1200048F6AB1640F2231842F2100970
:101BA00003900BF1100040F26C1ACCF6EF56C4F221
:101BB0006758C4F2020902900BF10C000024C2F233
:101BC000000A019006E000BF10806868023068607B
:101BD0008BF804409BF80200012807D1DDE90310CF
:101BE000DDE90132FEF79AFB8BF802409BF8040016
:101BF0000128EFD19BF8050001283BD140F2F40009
:101C0000C2F20000FFF770FCC0B2400832D06A6830
:101C1000012873D1002110F001004FF0000429D0F9
:101C20003AF81100D9F80010090644BF49F80C8CA5
:101C300049F80C6CDAB1D9F8001021F00201C9F8AA
:101C40000010D9F80010C9F8001059F8041CC90791
:101C50000CD059F8041CC9071CBF59F8041C5FEAD2
:101C6000C17103D059F8041CC907EED1108068680F
:101C7000023068609BF806000128A9D140F2F40008
:101C8000C2F200003C30FFF72FFCC0B240089FD0EA
:101C90006A68012840F09280002110F001004FF0A6
:101CA000000495D03AF81100D9F80010090644BF95
:101CB00049F80C8C49F80C6C002A3FF486AFD9F82F
:101CC000001021F00201C9F80010D9F80010C9F87D
:101CD000001059F8041CC9073FF476AF59F8041CEA
:101CE000C9071CBF59F8041C5FEAC1713FF46CAF0F
:101CF00059F8041CC907ECD166E700BF00F07E0369
:101D0000002107E017806A680231023299426A6056
:101D10003FF481AF3AF81170D9F80040240644BF6F
:101D200049F80C8C49F80C6CDAB1D9F8004024F071
:101D30000204C9F80040D9F80040C9F8004059F839
:101D4000044CE4070CD059F8044CE4071CBF59F8C4
:101D5000044C5FEAC47403D059F8044CE407EED194
:101D600017806A6841F0010702326A603AF817701A
:101D7000D9F80040240644BF49F80C8C49F80C6C93
:101D8000002AC0D0D9F8004024F00204C9F800406D
:101D9000D9F80040C9F8004059F8044CE407B1D024
:101DA00059F8044CE4071CBF59F8044C5FEAC474AA
:101DB000A8D059F8044CE407EED1A3E700F07E0365
:101DC000002107E017806A680231023299426A6096
:101DD0003FF463AF3AF81170D9F80040240644BFCD
:101DE00049F80C8C49F80C6CDAB1D9F8004024F0B1
:101DF0000204C9F80040D9F80040C9F8004059F879
:101E0000044CE4070CD059F8044CE4071CBF59F803
:101E1000044C5FEAC47403D059F8044CE407EED1D3
:101E200017806A6841F0010702326A603AF8177059
:101E3000D9F80040240644BF49F80C8C49F80C6CD2
:101E4000002AC0D0D9F8004024F00204C9F80040AC
:101E5000D9F80040C9F8004059F8044CE407B1D063
:101E600059F8044CE4071CBF59F8044C5FEAC474E9
:101E7000A8D059F8044CE407EED1A3E70102000012
:101E80000000000000000102030406070809020325
:101E90000405060708090A0B0C0D0E0F10100000B0
:101EA000D01E000800000020180000006401000897
:101EB000E81E000800400020D007000028010008AC
:101EC000E81E00081800002020080000800100081B
:101ED00000000008000000080100000010000000E1
:101EE0000024F4000000000001FF01FF01FF01FFDA
:081EF00001FF01FF01FF01DF0A
:04000005080000ED02
:00000001FF
